:100000000C945E000C9486000C9486000C94860080
:100010000C9486000C9486000C9486000C94860048
:100020000C9486000C9486000C9486000C94860038
:100030000C9486000C9486000C9486000C94860028
:100040000C9476030C9486000C94E6030C94C00385
:100050000C9486000C9486000C9486000C94860008
:100060000C9486000C948600000000080002010039
:100070000003040700000000000000000000000072
:10008000250028002B0000000000240027002A0083
:10009000040404040404040402020202020203032E
:1000A0000303030301020408102040800102040836
:1000B00010200102040810201804150611241FBE88
:1000C000CFEFD8E0DEBFCDBF11E0A0E0B1E0EEEFB2
:1000D000FCE002C005900D92A23BB107D9F722E0E7
:1000E000A2EBB1E001C01D92A43EB207E1F710E01F
:1000F000CDE5D0E004C02197FE010E946706CC3513
:10010000D107C9F70E94AF040C9472060C9400004A
:1001100090E0FC01EC55FF4F2491FC01E057FF4FAC
:100120008491882399F090E0880F991FFC01EA5789
:10013000FF4FA591B491FC01E458FF4F8591949134
:100140008FB7F894EC91E22BEC938FBF089590E079
:10015000FC01E859FF4F3491FC01EC55FF4F24910D
:10016000FC01E057FF4FE491EE2309F43BC0332339
:1001700039F1333091F038F43130A9F0323001F5F3
:1001800084B58F7D12C0373091F03830A1F0343013
:10019000B9F4809180008F7D03C0809180008F77BB
:1001A000809380000DC084B58F7784BD09C0809195
:1001B000B0008F7703C08091B0008F7D8093B00036
:1001C000F0E0EE0FFF1FE458FF4FA591B4918FB7F9
:1001D000F894EC91611103C020952E2301C02E2BC1
:1001E0002C938FBF08953FB7F8948091B3019091FD
:1001F000B401A091B501B091B60126B5A89B05C088
:100200002F3F19F00196A11DB11D3FBFBA2FA92F95
:10021000982F8827820F911DA11DB11DBC01CD0112
:1002200042E0660F771F881F991F4A95D1F70895FE
:100230008F929F92AF92BF92CF92DF92EF92FF92F6
:100240006B017C010E94F3004B015C01C114D104DD
:10025000E104F104F1F00E94F300DC01CB01881904
:100260009909AA09BB09883E9340A105B10570F31D
:1002700021E0C21AD108E108F10888EE880E83E077
:10028000981EA11CB11CC114D104E104F10419F79A
:10029000DDCFFF90EF90DF90CF90BF90AF909F9019
:1002A0008F900895CF92DF92EF92FF920F931F935A
:1002B000CF93DF936C017A018B01C0E0D0E0CE15C3
:1002C000DF0589F0D8016D918D01D601ED91FC918A
:1002D0000190F081E02DC6010995892B11F47E0172
:1002E00002C02196ECCFC701DF91CF911F910F91F2
:1002F000FF90EF90DF90CF900895FC01918D828D5B
:10030000981761F0828DDF01A80FB11D5D968C9169
:10031000928D9F5F9F73928F90E008958FEF9FEF74
:100320000895FC01918D828D981731F0828DE80F30
:10033000F11D858D90E008958FEF9FEF0895FC01EA
:10034000918D228D892F90E0805C9F4F821B9109B7
:100350008F739927089587EB91E00E949F0121E018
:10036000892B09F420E0822F0895FC01848DDF01A0
:10037000A80FB11DA35ABF4F2C91848D90E0019618
:100380008F739927848FA689B7892C93A089B18907
:100390008C9180648C93938D848D981306C0028811
:1003A000F389E02D80818F7D80830895EF92FF9205
:1003B0000F931F93CF93DF93EC0181E0888F9B8D88
:1003C0008C8D981305C0E889F989808185FD24C04A
:1003D000F62E0B8D10E00F5F1F4F0F731127E02ECD
:1003E0008C8DE8120CC00FB607FCFACFE889F989AA
:1003F000808185FFF5CFCE010E94B501F1CF8B8DB5
:10040000FE01E80FF11DE35AFF4FF0820B8FEA89DE
:10041000FB898081806207C0EE89FF896083E8895B
:10042000F98980818064808381E090E0DF91CF91C1
:100430001F910F91FF90EF900895CF93DF93EC0100
:10044000888D8823C9F0EA89FB89808185FD05C0F4
:10045000A889B9898C9186FD0FC00FB607FCF5CF2E
:10046000808185FFF2CFA889B9898C9185FFEDCF76
:10047000CE010E94B501E7CFDF91CF91089580E0D2
:1004800090E0892B29F00E94AB0181110C940000AF
:100490000895009769F0FC0101900020E9F7319779
:1004A000AF01481B590BBC0187EB91E00C94520142
:1004B00080E090E00895CF93DF930E944902EC0121
:1004C0008AE191E00E9449028C0F9D1FDF91CF913C
:1004D0000895EF92FF920F931F93CF93DF937C01C8
:1004E000162F8DE191E00E945B028DE00E94880052
:1004F000C5E0D0E061E08DE00E94A7006DE770E00C
:1005000080E090E00E94180160E08DE00E94A7006A
:100510006DE770E080E090E00E941801219751F7AC
:1005200062E370E080E090E00E9418011093DA022C
:100530008FE291E00E945B028701CEE9D2E08091D8
:10054000DA0290E09E012E593240281739076CF4E8
:10055000F80181918F017E0189930E94880060E0FB
:10056000F70180810E94A700EACF1092DB022FB72B
:10057000F8948091540290915502A0915602B09146
:1005800057022FBF8093DC029093DD02A093DE021E
:10059000B093DF021092E0021092E1021092E202A8
:1005A0001092E30283E691E0DF91CF911F910F91CA
:1005B000FF90EF900C945B020F931F93CF938C01ED
:1005C000C0E04C2F50E0F80124AD30E0215031095B
:1005D000421753074CF4F801E40FF51F60E08081E7
:1005E0000E94A700CF5FEDCF8EE691E0CF911F91E3
:1005F0000F910C945B028F929F92AF92BF92CF9219
:10060000DF92EF92FF920F931F93CF93DF93CDB7BB
:10061000DEB7A1970FB6F894DEBF0FBECDBF6B015A
:100620007C0197FF31C0E091B701F091B8010190D2
:10063000F081E02D6DE287EB91E009958C01222796
:100640003327A9012C193D094E095F0919A2CE01D2
:1006500081967C019AE0892E912CA12CB12CCA01A3
:10066000B901A50194010E943106605DF701629312
:100670007F01211531054105510589F7CF010E9400
:100680004902800F911F1DC09B01AC0119A28E0170
:100690000F5D1F4F8AE0C82ED12CE12CF12CCA012E
:1006A000B901A70196010E943106605DF8016293CD
:1006B0008F01211531054105510589F7CF010E94B0
:1006C0004902A1960FB6F894DEBF0FBECDBFDF91F1
:1006D000CF911F910F91FF90EF90DF90CF90BF903F
:1006E000AF909F908F9008950E946D061F920F9279
:1006F0000FB60F9211242F933F938F939F93AF9335
:10070000BF938091540290915502A0915602B091EE
:1007100057023091B20123E0230F2D3720F40196C8
:10072000A11DB11D05C026E8230F0296A11DB11D14
:100730002093B2018093540290935502A0935602E5
:10074000B09357028091B3019091B401A091B5018B
:10075000B091B6010196A11DB11D8093B301909394
:10076000B401A093B501B093B601BF91AF919F9131
:100770008F913F912F910F900FBE0F901F90189562
:100780001F920F920FB60F9211242F933F934F9306
:100790005F936F937F938F939F93AF93BF93EF93E9
:1007A000FF9387EB91E00E94B501FF91EF91BF911C
:1007B000AF919F918F917F916F915F914F913F91F9
:1007C0002F910F900FBE0F901F9018951F920F92B0
:1007D0000FB60F9211242F938F939F93EF93FF9354
:1007E000E091C701F091C8018081E091CD01F091C5
:1007F000CE0182FD12C090818091D0018F5F8F73F6
:100800002091D101821751F0E091D001F0E0E9543C
:10081000FE4F958F8093D00101C08081FF91EF91B1
:100820009F918F912F910F900FBE0F901F90189551
:100830001092BA011092B90188EE93E0A0E0B0E006
:100840008093BB019093BC01A093BD01B093BE0106
:100850008EE091E09093B8018093B70185EC90E031
:100860009093C4018093C30184EC90E09093C601FF
:100870008093C50180EC90E09093C8018093C701FC
:1008800081EC90E09093CA018093C90182EC90E0E2
:100890009093CC018093CB0186EC90E09093CE01B5
:1008A0008093CD011092D0011092D1011092D2010B
:1008B0001092D3011092DA02AEE9B2E0E2EBF2E07C
:1008C0001D921192119282E0E83DF807C9F72FB707
:1008D000F8948091540290915502A0915602B091E3
:1008E00057022FBF8093DC029093DD02A093DE02BB
:1008F000B093DF021092E0021092E1021092E20245
:100900001092E3021092DB0210929402A8E5B2E08A
:10091000ECE6F2E01D921192119282E0E239F807C2
:10092000C9F72FB7F8948091540290915502A09185
:100930005602B09157022FBF809396029093970270
:10094000A0939802B093990210929A0210929B027F
:1009500010929C0210929D02109295020895789434
:1009600084B5826084BD84B5816084BD85B58260B4
:1009700085BD85B5816085BD80916E008160809365
:100980006E001092810080918100826080938100CE
:1009900080918100816080938100809180008160DE
:1009A000809380008091B10084608093B100809139
:1009B000B00081608093B00080917A008460809361
:1009C0007A0080917A00826080937A0080917A0028
:1009D000816080937A0080917A00806880937A00A9
:1009E0001092C100E091C701F091C80182E08083BC
:1009F000E091C301F091C4011082E091C501F09132
:100A0000C60180E180831092CF01E091CB01F0918B
:100A1000CC0186E08083E091C901F091CA01808118
:100A200080618083E091C901F091CA018081886072
:100A30008083E091C901F091CA0180818068808340
:100A4000E091C901F091CA0180818F7D80838EE79A
:100A500091E00E945B026AE080E091E00E946902FE
:100A600060ED77E080E090E00E9418018FE891E06F
:100A70000E945B0254E6E52EF12CCC24C394D12CC9
:100A800074E0772E00E010E08FB7F8948090540265
:100A900090905502A0905602B09057028FBF80915F
:100AA000DB02843071F06091DA028EE992E00E94FC
:100AB00069021092E0021092E1021092E20210929A
:100AC000E3027092DB028091E0029091E102A0913A
:100AD000E202B091E30288159905AA05BB0574F0FE
:100AE00064E670E080E090E00E9418010F5F1F4F05
:100AF0000536110549F60E943F02C4CFC0E090912F
:100B0000DA02C91790F4C501B4010E94FB028AE120
:100B100091E00E944902EC2FF0E0EE0FFF1FEE542F
:100B2000FD4F11821082CF5FEACF909F9001919F7D
:100B3000300D1124C901B7010E941D06EB01209759
:100B400041F491E080E00115110509F490E0C92F0E
:100B5000D82F8BE991E00E944902BE010D2E000CB6
:100B6000880B990B0E94FB028AE191E00E944902E6
:100B700020E0822F90E08C179D074CF4880F991F7E
:100B8000FC01EE54FD4FD182C0822F5FF2CFC0E056
:100B90008091DA02C817A0F4EC2FF0E0EE0FFF1FEF
:100BA000EE54FD4F60817181072E000C880B990B6C
:100BB0000E94FB0286EA91E00E944902CF5FE8CFE3
:100BC00089EA91E00E945B02D501C4018C599F4FD4
:100BD000AF4FBF4F8093E0029093E102A093E202F7
:100BE000B093E3028092DC029092DD02A092DE02DA
:100BF000B092DF02C0E08091DA02C81708F070CF2F
:100C0000EC2FF0E0DF01AA0FBB1FAE54BD4F8D915A
:100C10009C91E256FD4F892B11F460E001C061E028
:100C200080810E94A700CF5FE6CF88E592E00E9416
:100C3000DC028EE992E00C94DC0297FB072E16F49E
:100C4000009407D077FD09D00E94530607FC05D019
:100C50003EF4909581959F4F0895709561957F4FD3
:100C60000895A1E21A2EAA1BBB1BFD010DC0AA1FED
:100C7000BB1FEE1FFF1FA217B307E407F50720F005
:100C8000A21BB30BE40BF50B661F771F881F991F80
:100C90001A9469F760957095809590959B01AC01C9
:100CA000BD01CF010895AA1BBB1B51E107C0AA1FBC
:100CB000BB1FA617B70710F0A61BB70B881F991FFD
:100CC0005A95A9F780959095BC01CD010895EE0F36
:100CD000FF1F0590F491E02D099481E090E0F894D5
:100CE0000C94720610E0CDE5D0E004C0FE010E9435
:0E0CF00067062196CE35D107C9F7F894FFCFDD
:100CFE000204050608090A0B0C0D00000000D601BF
:100D0E0052019F017D0191011D020D0A0041747473
:100D1E0061636820424547494E2E2E2E2E2E0061CD
:100D2E007474616368696E672061204C6564436802
:100D3E006173652C2077697468204C656473206339
:100D4E006F6E6E656374656420746F2070696E7368
:100D5E003A200061747461636820454E4400446516
:100D6E00737472756374696F6E20454E44006265CC
:100D7E0067696E2073657475702829205634006576
:100D8E006E64207365747570282900696E746572BF
:100D9E0076616C3D2000202C0056554D4554455231
:020DAE00000043
:00000001FF
