:100000000C9435000C945D000C945D000C945D0024
:100010000C945D000C945D000C945D000C945D00EC
:100020000C945D000C945D000C945D000C945D00DC
:100030000C945D000C945D000C945D000C945D00CC
:100040000C945F000C945D000C945D000C945D00BA
:100050000C945D000C945D000C945D000C945D00AC
:100060000C945D000C945D00F30011241FBECFEFD3
:10007000D8E0DEBFCDBF21E0A6E0B1E001C01D9217
:10008000A531B207E1F711E0A0E0B1E0E4E7F4E068
:1000900002C005900D92A630B107D9F710E0C5E374
:1000A000D0E004C02197FE010E940501C433D107AE
:1000B000C9F70E94A9000C9438020C9400001F920A
:1000C0000F920FB60F9211242F933F938F939F930C
:1000D000AF93BF9380910D0190910E01A0910F01FC
:1000E000B091100130910C0123E0230F2D3720F443
:1000F0000196A11DB11D05C026E8230F0296A11D82
:10010000B11D20930C0180930D0190930E01A093DB
:100110000F01B09310018091080190910901A09105
:100120000A01B0910B010196A11DB11D8093080138
:1001300090930901A0930A01B0930B01BF91AF9175
:100140009F918F913F912F910F900FBE0F901F9015
:100150001895789484B5826084BD84B5816084BD2F
:1001600085B5826085BD85B5816085BD80916E0055
:10017000816080936E001092810080918100826086
:1001800080938100809181008160809381008091C3
:1001900080008160809380008091B10084608093B2
:1001A000B1008091B00081608093B00080917A00AE
:1001B000846080937A0080917A00826080937A00D4
:1001C00080917A00816080937A0080917A008068C3
:1001D00080937A001092C100C0E0D0E02097F1F344
:1001E0000E940000FBCF8EE290E00E940B01FC0118
:1001F000009751F093A782A795A784A711A610A6F0
:1002000090930701809306010895EE0FFF1F05905C
:10021000F491E02D0994CF93DF938230910510F48F
:1002200082E090E0E0911301F091140120E030E0D1
:10023000C0E0D0E0309711F1408151814817590753
:10024000C0F04817590761F482819381209719F013
:100250009B838A832BC0909314018093130126C043
:100260002115310519F04217530718F49A01BE0100
:10027000DF01EF010280F381E02DDCCF2115310594
:1002800009F1281B390B2430310590F412968D9119
:100290009C9113976115710521F0FB019383828373
:1002A00004C09093140180931301FD01329644C061
:1002B000FD01E20FF31F81939193225031092D9399
:1002C0003C933AC02091110130911201232B41F44B
:1002D000209102013091030130931201209311010A
:1002E00020910001309101012115310541F42DB714
:1002F0003EB74091040150910501241B350BE0915C
:100300001101F0911201E217F307A0F42E1B3F0B2D
:100310002817390778F0AC014E5F5F4F2417350777
:1003200048F04E0F5F1F50931201409311018193CB
:10033000919302C0E0E0F0E0CF01DF91CF9108950A
:100340000F931F93CF93DF93009709F48CC0FC01A8
:10035000329713821282009113011091140101153A
:10036000110581F420813181820F931F20911101A9
:10037000309112012817390779F5F0931201E093B3
:10038000110171C0D80140E050E0AE17BF0750F432
:1003900012962D913C911397AD012115310509F16C
:1003A000D901F3CF9D01DA0133832283608171810A
:1003B000860F971F8217930769F4EC012881398112
:1003C000260F371F2E5F3F4F318320838A819B8109
:1003D00093838283452B29F4F0931401E093130156
:1003E00042C01396FC93EE931297ED0149915991F7
:1003F0009E01240F351FE217F30771F4808191816C
:10040000840F951F029611969C938E9382819381FF
:1004100013969C938E931297E0E0F0E0D801129629
:100420008D919C911397009719F0F8018C01F6CFEC
:100430008D919C9198012E5F3F4F820F931F2091C9
:100440001101309112012817390769F4309729F406
:10045000109214011092130102C0138212821093A1
:10046000120100931101DF91CF911F910F91089517
:04047000F894FFCF2E
:06047400000015018000EC
:00000001FF
